:100000000C942A000C9447000C9447000C94470071
:100010000C9447000C9447000C9447000C94470044
:100020000C9447000C9447000C9447000C94470034
:100030000C9447000C9447000C9447000C94470024
:100040000C9447000C9447000C9447000C94470014
:100050000C94470011241FBECFE5D4E0DEBFCDBF16
:1000600010E0A0E6B0E0ECE4F1E002C005900D92F3
:10007000AA37B107D9F710E0AAE7B0E001C01D9296
:10008000AB37B107E1F70E9449000C94A4000C942F
:10009000000010BC83E389B988E18AB980B586681D
:1000A00080BDE3E6F0E003C08CB95D9BFECF81919B
:1000B0008823D1F78DE08CB95D9BFECFE0E6F0E0C0
:1000C0009DE08081882339F031968CB95D9BFECF0D
:1000D00080818823C9F75F9BFECF8CB180937A0023
:1000E0009CB95D9BFECFE6E7F0E003C08CB95D9B59
:1000F000FECF81918823D1F780917A008CB95D9BE6
:10010000FECF9CB95D9BFECFE0E6F0E0DACF10BCFD
:1001100083E389B988E18AB980B5866880BD08958E
:100120008CB95D9BFECF08955F9BFECF8CB1089587
:10013000E82FF92F8191882331F08CB95D9BFECF98
:0C01400081918823D1F70895F894FFCF37
:10014C003C3C00494E495449414C495A494E472080
:0A015C005553415254003E3E00008E
:00000001FF
