:100000000C942A000C9447000C9447000C94470071
:100010000C9447000C9447000C9447000C94470044
:100020000C9447000C9447000C9447000C94470034
:100030000C9447000C9447000C9447000C94470024
:100040000C9447000C9447000C9447000C94470014
:100050000C94470011241FBECFE5D4E0DEBFCDBF16
:1000600010E0A0E6B0E0EEE2F1E002C005900D92F3
:10007000AE38B107D9F710E0AEE8B0E001C01D928C
:10008000AF38B107E1F70E9449000C9495000C9439
:10009000000010BC83E389B988E18AB980B586681D
:1000A00080BDE6E6F0E003C08CB95D9BFECF819198
:1000B0008823D1F7E8E7F0E003C08CB95D9BFECF61
:1000C00081918823D1F7E0E6F0E08081882339F040
:1000D00031968CB95D9BFECF80818823C9F75F9BE9
:1000E000FECF8CB180938E008CB95D9BFECFEBCFA1
:1000F00010BC83E389B988E18AB980B5866880BD80
:1001000008958CB95D9BFECF08955F9BFECF8CB1A7
:100110000895E82FF92F8191882331F08CB95D9BE8
:0E012000FECF81918823D1F70895F894FFCF88
:10012E000D0A243E200041746D6567613136204210
:10013E006F6F7475700D0A00494E495449414C4910
:0E014E005A494E472055534152540D0A0000A5
:00000001FF
