:100000000C942A000C943F000C943F000C943F0089
:100010000C943F000C943F000C943F000C943F0064
:100020000C943F000C943F000C943F000C943F0054
:100030000C943F000C943F000C943F000C943F0044
:100040000C943F000C943F000C943F000C943F0034
:100050000C943F0011241FBECFE5D4E0DEBFCDBF1E
:1000600010E0A0E6B0E0E8E1F2E002C005900D92F9
:10007000AA38B107D9F70E9441000C940A010C94E8
:10008000000060E071EE80E090E00E94500080E6A9
:1000900090E00E94970086E790E00E949700FFCFD3
:1000A0000F931F93DF93CF93CDB7DEB7A0970FB613
:1000B000F894DEBF0FBECDBF9B01AC018E010F5F78
:1000C0001F4F80E2F80111928A95E9F710BC60E2B7
:1000D00071EA87E090E00E94A30029B988E18AB91B
:1000E00080B5866880BD89B190E0B8014AE050E0F3
:1000F0000E94C500F8018191882331F08CB95D9B85
:10010000FECF81918823D1F7A0960FB6F894DEBF79
:100110000FBECDBFCF91DF911F910F9108958CB984
:100120005D9BFECF08955F9BFECF8CB10895E82FB5
:10013000F92F8191882331F08CB95D9BFECF81919D
:100140008823D1F70895A1E21A2EAA1BBB1BFD013B
:100150000DC0AA1FBB1FEE1FFF1FA217B307E407A6
:10016000F50720F0A21BB30BE40BF50B661F771FFE
:10017000881F991F1A9469F76095709580959095DE
:100180009B01AC01BD01CF010895FB019F01E894E3
:100190004230C4F04532B4F44A3029F497FB1EF4DF
:1001A000909581959F4F642F77270E94F600805D80
:1001B0008A330CF0895D8193CB010097A1F716F487
:1001C0005DE251931082C9010C94E600DC01FC0150
:1001D000672F71917723E1F7329704C07C916D937B
:1001E00070836291AE17BF07C8F30895AA1BBB1BAB
:1001F00051E107C0AA1FBB1FA617B70710F0A61B27
:10020000B70B881F991F5A95A9F780959095BC0147
:08021000CD010895F894FFCF21
:100218000D0A0D0A41746D656761313620426F6FB2
:100228007475700D0A00496E7469616C697A696E3B
:0A023800672055534152540D0A008F
:00000001FF
